:020000040800F2
:10000000005000206506000863060008610600082D
:100010006106000861060008610600080000000093
:10002000000000000000000000000000630600085F
:10003000630600080000000063060008630600086D
:1000400061060008610600086106000861060008F4
:1000500061060008610600086106000861060008E4
:1000600061060008610600086106000861060008D4
:1000700061060008610600086106000861060008C4
:1000800061060008610600086106000861060008B4
:1000900061060008610600086106000861060008A4
:1000A0006106000861060008610600086106000894
:1000B0006106000861060008610600086106000884
:1000C0006106000861060008610600086106000874
:1000D0006106000861060008610600086106000864
:1000E0006106000861060008610600086106000854
:1000F0006106000861060008610600086106000844
:100100006106000861060008610600086106000833
:100110006106000861060008610600086106000823
:100120006106000861060008610600086106000813
:100130006106000861060008610600086106000803
:1001400061060008610600086106000861060008F3
:1001500037B500F0D5F940F2023000F06AFA40F20B
:10016000033000F066FA40F2913000F062FA5F4826
:100170000021012241F2F03300F0DCF800220223DA
:100180005B48032100F0D6F85948022100F0FEF93F
:10019000574803210222042300F0CCF8012208234F
:1001A0005348002100F0C6F852484FF4E13100F006
:1001B000F3F95048082100F003FA4E48002100F0FE
:1001C00008FA4C480C2100F010FA4A48002100F0CF
:1001D00006FA4848002100F00EFA464800F011FAED
:1001E000002400BF414800F0D3F941F2F03505404A
:1001F000A54275D000F01004A4B264B968463E4927
:1002000000F070FA1DF804103A48013400F0FEF9CD
:10021000062CF7D164E000F02004A4B264B968466B
:10022000364900F05FFA1DF804103248013400F03E
:10023000EDF9062CF7D153E000F04004A4B264B904
:1002400068462F4900F04EFA1DF804102948013481
:1002500000F0DCF9062CF7D142E000F08004A4B2F3
:1002600064B96846274900F03DFA1DF8041021489A
:10027000013400F0CBF9062CF7D131E000F48074A2
:10028000A4B264B96846204900F02CFA1DF80410A5
:100290001848013400F0BAF9062CF7D120E000F438
:1002A0000074A4B264B96846184900F01BFA1DF83E
:1002B00004101048013400F0A9F9062CF7D10FE022
:1002C00000F48054A4B25CB96846114900F00AFAFF
:1002D0001DF804100748013400F098F9062CF7D1F6
:1002E0004FF4FA7000F020F82C467AE7000C014039
:1002F0000008014000440040D0180008D41800084D
:10030000D8180008DC180008E0180008E4180008F5
:10031000E818000882B00190019B1BB1019B013BD2
:100320000193F9E702B0704708B5A8235843FFF7D7
:10033000F1FF08BD2DE9F0414FF6E07796469C4667
:100340000268436800254CFA05F4E4071BD5072D25
:10035000ACB28BBF3C4616461E46A40098BFA4B262
:100360004FF00F0808FA04F826EA080604F102081C
:100370000EFA08F801FA04F448EA04043443082D9C
:100380002CBF2346224601350437102DBFB2DAD1E7
:1003900002604360BDE8F081024A136843F0807355
:1003A0001360704700100240062827D8DFE800F0ED
:1003B00004090E13181D2200114B1B689901FBD56F
:1003C00070470F4B1B681A01FBD570470C4B1B681D
:1003D0009B00FBD570470A4B1B689803FBD5704701
:1003E000074B1B689907FBD57047064B1B689A079C
:1003F000FBD57047044B1B689B07FBD5704700BFBC
:1004000000100240201002402410024006281FD88D
:10041000DFE800F004060B1015171900FFF7BCBF4A
:100420000C4A136843F0806311E00A4A136843F0F2
:1004300080530CE0074A136843F4803307E0054A11
:1004400002E0054A00E0054A136843F00103136027
:10045000704700BF001002402010024024100240EC
:10046000034A136823F0030318431060704700BF6A
:1004700004100240034A136823F4701343EA8040D7
:100480001060704704100240034A136823F480335D
:1004900043EA00401060704704100240034A1368AA
:1004A00023F4003343EA40401060704704100240D8
:1004B000034A136823F4404343EA803010607047D6
:1004C00004100240034A136823F4605343EAC02037
:1004D0001060704704100240034A136823F4E0637D
:1004E00043EA00201060704704100240034A13687A
:1004F00023F0F00343EA001010607047041002403C
:1005000008B50420FFF782FF0420FFF74DFF00200D
:10051000FFF7A6FF0320FFF779FF0320FFF744FF53
:100520000120FFF79DFF0020FFF7E0FF0320FFF70A
:10053000BFFF0420FFF7D0FF0020FFF7C3FF02201A
:1005400000F084F80720FFF795FF0120FFF79CFFDC
:100550000020FFF7A3FFFFF71FFF0020FFF724FF96
:100560000220FFF77DFF044B044A05491360054A4A
:100570001160054A136008BD00A24A040000002073
:10058000005125020400002008000020016170478E
:10059000806880B270470000064A074B90421B6893
:1005A00004BF064B1B6801EB43034900B3FBF1F3A7
:1005B00083607047003801400400002008000020DC
:1005C000C36808290CBF23F4805343F48053C360ED
:1005D0007047036923F44053194301617047C368AE
:1005E00023F4C0631943C1607047C36823F00C0350
:1005F0001943C1607047436923F440731943416153
:100600007047C36843F40053C360704738B505466C
:100610000C4600F00AF828462146BDE8384000F0B4
:1006200000B8C1F308014160704703681B06FCD5A0
:100630007047430903F1804303F50433196800F060
:100640001F00012282400A431A607047034A136860
:1006500023F0070318431060704700BF00200240DA
:10066000FEE770470022154915485318834204D20B
:10067000144BD35853500432F5E7134A934203D234
:1006800000221A600433F8E7104C114B9C4203D24D
:1006900054F8043B9847F8E70E4C0F4B9C4203D2AA
:1006A00054F8043B9847F8E7FFF752FD0B4C0C4B0E
:1006B0009C4203D254F8043B9847F8E7000000201E
:1006C0003C040020C819000840040020F01800086D
:1006D000F0180008F0180008F0180008F0180008DA
:1006E000F018000880EA0102844612F0030F4FD18F
:1006F00011F0030F32D14DF8044D11F0040F51F8F1
:10070000043B0BD0A3F101329A4312F0803F04BFA7
:100710004CF8043B51F8043B16D100BF51F8044B90
:10072000A3F101329A4312F0803FA4F101320BD1C0
:100730004CF8043BA24312F0803F04BF51F8043B45
:100740004CF8044BEAD023460CF8013B13F0FF0FA2
:100750004FEA3323F8D15DF8044B704711F0010FD5
:1007600006D011F8012B0CF8012B002A08BF7047A6
:1007700011F0020FBFD031F8022B12F0FF0F16BF9D
:100780002CF8022B8CF8002012F47F4FB3D1704765
:1007900011F8012B0CF8012B002AF9D1704700BF8A
:1007A00003685A004CBF43F0004323F00043184451
:1007B000704700BF2DE9F04F83B099B34B1E174629
:1007C000054698460193002606EB080404EBD47412
:1007D00064104FEAC40A05EB0A0B5846FFF7E0FF26
:1007E000019B8146A3420AF1080028440ED0FFF77E
:1007F000D7FFB94500F1FF3004D9B4420CD004F161
:10080000FF38E1E7B84203D2661CDDE7B945F4D80A
:10081000584603B0BDE8F08F4FF0000B584603B0C8
:10082000BDE8F08F8B46584603B0BDE8F08F00BF9F
:10083000012807D0022807D0044B00280CBF184617
:10084000002070470248704702487047450F000873
:10085000490F00084D0F000830B5254B83B0044602
:100860008D1E7BB3284601A9AFF3008020B3019908
:100870002A46FFF79FFF0546F0B1FFF791FF6B682F
:10088000A064012B12D0002B05F1040021DBFFF73F
:1008900087FF0023E06423650368002B1DDBFFF75F
:1008A0007FFF00232061184603B030BD0023236181
:1008B0000523184603B030BD0023236109231846E1
:1008C00003B030BD0B490C4B0846591AC9100191B1
:1008D000CEE70123E0642365DEE7C3F30360FFF79F
:1008E000A7FF002820610CBF09230023DBE700BF1E
:1008F0000000000008190008C8190008036810B5B6
:10090000DA07044606D49B0700F1480009D500F039
:1009100085FC2368590709D51A070ED5DB0613D5C0
:1009200010BD00F073FC23685907F5D404F1D00022
:1009300000F07CFC23681A07F0D404F5A87000F0DE
:100940007DFC2368DB06EBD404F5E870BDE81040BD
:1009500000F0B8BC03680BB11844704718467047E4
:1009600009207047704700BF70B504460D4608E087
:100970002A6C23696261012021462A46984708288B
:1009800008D12046296CFFF767FF06460028EFD004
:1009900000F0C4FE0728FBD13046296CFFF7E2FFC8
:1009A000281D00F027FC00BF2DE9F0470646ADF5F5
:1009B000727D03AD0C1D17460FCC0FC50FCC0FC5B4
:1009C0000FCC0FC594E80F0002AC4FF0000ED6F824
:1009D0000C80D6F8189085E80F003046216CC4F8DA
:1009E00000E0FFF739FF0546002F0CBF09270A2753
:1009F0007DB1A36B47F010018DE810020120636404
:100A000032463346C04778BB28460DF5727DBDE8B7
:100A1000F087236C214673614FF4F0727AA800F0DE
:100A200085FE336931467AAA38469847889B8246C4
:100A30008DE8100239466364012032463346C047D0
:100A400090B920467AA94FF4F07200F06FFEBAF127
:100A5000080F06D13046216CFFF7FEFE0927054638
:100A6000C6E7BAF1070F04D009200DF5727DBDE885
:100A7000F0872846216CFFF775FF03A800F0BAFB4A
:100A8000406C7047F0B5CB6BF9B00B640E1D01AD37
:100A90000F4604460FCE0FC50FCE0FC50FCE0FC5A4
:100AA00096E80F004FF0FF3685E80F00009606E04D
:100AB000236921466A4698470828054608D12046FA
:100AC0001099FFF7C9FE0028F2D0092079B0F0BDD7
:100AD0006846FFF713FF062DF7D120463946FFF78A
:100AE00043FF00BF30B4DD6BC160826119461D64F5
:100AF000002230BC58E700BF70B54369C6680446A1
:100B00000D460B6426B10122FFF74EFF00F006FEF2
:100B10000369214602202A469847072807D008285B
:100B200003D120462946FFF71FFF00F0F7FD3046AE
:100B3000296CFFF717FF281D00F05CFBC26832B17B
:100B400010B4CC6B00220C645DF8044B2CE799E7E1
:100B5000704700BF836813B10146012018477047F2
:100B600000B5042907D8DFE801F0030906090900E8
:100B70000BB90F2A05D902205DF804FB01205DF8AE
:100B800004FB00EB820252681846019B1A605DF874
:100B900004FB00BF00B585B00A4603AB00210093FB
:100BA0000B46FFF7DDFF039805B05DF804FB00BFBF
:100BB00000B5042907D8DFE801F003090609090098
:100BC0000BB90F2A05D902205DF804FB01205DF85E
:100BD00004FB019900EB82020968184651605DF838
:100BE00004FB00BF10B50C4684B004AB43F8042DE1
:100BF0000021009322460B46FFF7DAFF04B010BD38
:100C0000F0B5D36BADF50F7D1364151D17AC07461A
:100C10000E460FCD0FC40FCD0FC40FCD0FC495E8F6
:100C20000F004FF0FF3584E80F00169511E016A86D
:100C30006A46FFF7D7FF16A83146B84780B9049B2C
:100C40000820694616AA98470528044609D00928AD
:100C500006D026996846FFF7FFFD0C210028E6D054
:100C6000092416A8FFF74AFE20460DF50F7DF0BDBA
:100C70002DE9F04FCC6C904622688BB004340D46C1
:100C80000792089400F003091E46002B64D112025B
:100C9000032307928DF825608DF824302B6DB9F170
:100CA000020F08BFAC6B13F0010343D100F0080042
:100CB000C2B2039201932768002F3DD0022E47D085
:100CC0002788B4F802A00434AB6C2AF0010B40462C
:100CD0000F219B44FFF75EFF834537D827F00103C0
:100CE0009B4458452CBF002001200AF0010A07F060
:100CF000010747EA4A0ABAF1010F43D03AD3BAF1E1
:100D0000020F1FD1236823F000420292B9F1000FB5
:100D10007BD138B1039A002A00F08380029A002A1E
:100D200000F0A680002B7ADB029B03F1010A04EBA2
:100D30008A04C0E700230193022E40DDFFF710FE76
:100D4000002842D009200BB0BDE8F08F0020CCE78E
:100D5000D4F804A00834B7E7022B9FDC130CDFB2F1
:100D6000120402218DF8253004EB870407928DF8D8
:100D7000241093E7B9F1000F02D0002840F0AD80B5
:100D8000043498E7B9F1000F26D1B0B194E80C0013
:100D9000D70F9A1CD6D005F158020133069200F005
:100DA0009280201DFFF7D6FD3A46014606AB284645
:100DB000AFF30080002840F0B58008347BE7404660
:100DC00007A900F019FB0028BCD1019B002B59D1C9
:100DD00008200BB0BDE8F08F40460D212F6AFFF7C9
:100DE000D9FE8742E9D1AB6A9C42E6D12046FFF7A3
:100DF000D7FC0F2102464046FFF7F4FE40462A4644
:100E00000021FFF7EFFE07209DE740460D212F6AE6
:100E1000FFF7C0FE874245D02368002B84DA0434F4
:100E200082E7029B23B305F158030596039F04F163
:100E3000040ADDF808B0CDF810901E4602E0D9454E
:100E40004F4615D050460696FFF784FD0022014616
:100E500006AB2846AFF3008007F101090AF1040A46
:100E60000028ECD0029BDDF810909F42059ED3D164
:100E700040460D21FFF78EFE069B2862AC626B6236
:100E8000062060E70F214046FFF784FE0E21024650
:100E90004046FFF7A7FE40460F21294AFFF7A2FE72
:100EA000072050E7AB6A9C42B6D104220299002782
:100EB000A318A962EF622A636B632368BB421FDB3E
:100EC0000123019330E740460D21FFF763FE2862BE
:100ED000069B6B62AC62062035E72046FFF760FC9C
:100EE00004340646AC632846AFF3008000283FF484
:100EF00029AF404632460F21FFF774FE072022E754
:100F00000846013004EB8000FFF74AFC0F2102463F
:100F10004046FFF767FE404639462A46FFF762FE25
:100F2000072010E707460D214046FFF733FE022F4A
:100F30002862CDD12B46069A43F82C2F6B62C9E765
:100F400000000000002393E6012391E602238FE6D0
:100F5000F0B50546C5B004290CD8DFE801F056030A
:100F60000B300E00012B4FEA124496B265D0052BD0
:100F700000F08380022045B0F0BD002BFAD1102A8A
:100F8000F8D82B68DC0600F1E98022AE30460192E9
:100F900000F0A2F9A86B019A0023012404FA03F1DE
:100FA000114203D00168043046F823100133042BAA
:100FB000F4D1A863304600F085F90020DBE7032B6D
:100FC000D8D1140C97B23B19102BD3D82B681E071D
:100FD00000F1E48022AE30467F0000F051F906EBCC
:100FE000C4027B1EAC6B57B12146043A51F8040B86
:100FF000013B42F8040F581CF8D104EB870430463B
:10100000AC6300F01BF90020B5E7002BB2D1AC6B4C
:1010100097B2281D012606FA03F1394203F10103B4
:1010200002D0216804340160102B00F10400F2D1D9
:1010300012F400501FD1AC639DE73219102A99D8E1
:101040000F2C97D829680027C80754D422A80193E9
:1010500000F0E0F8019B19E008463746012B00F04C
:1010600097800F2CA86302D822A800F0D7F817B1F8
:1010700002A800F0DBF800207DE73719202F3FF6AB
:1010800079AF0F2C30D93746002E44D1A96B3246A8
:10109000002EE1D000278E4644A84FEA420C00EB18
:1010A000C4000CF1FF328C385EF8046B013A40F852
:1010B000046F561CF8D101EB8C00002FCED02246D5
:1010C000102C44A938BF102201EBC202A2F5C47251
:1010D00001467800043A01EB800051F8046B81422C
:1010E00042F8046FF9D1B9E7102F41D92A68103FAF
:1010F000D007114610D521F00102052B2A6001937B
:1011000028465BD021F0030140F8481B00F082F82C
:10111000019B002F4AD02A6851075BD4012B63D072
:101120000F2C04D822A8019300F07CF8019B002F1B
:10113000ACD002A8019300F07DF8019BC4F110022D
:10114000002AA96BA7DC2246102C44A838BF102225
:1011500000EBC202A2F5C4727800BBE723F01003D3
:101160002B6005F5E870019200F0B6F8019A0CE7E3
:101170002968C8071DD5284621F0010242F0020265
:1011800040F8482B0193002700F04CF8019BC9E779
:101190000430A86322A800F039F86CE723F00803B4
:1011A0002B6005F5A87000F06BF813E7012B3FF4F6
:1011B0004DAF0F2C98BF0027B4D967E742F0020269
:1011C00040F8482B00F02EF8019B002FAAD02A6887
:1011D0005107A5D5284622F0040240F8D02B0193F0
:1011E00000F028F8019B99E722A8019300F012F87B
:1011F000019BA3E700F1340191E838009C46A64624
:101200004CF8045D90E8FF0FE54600BD90EC210B23
:10121000704700BF80EC210B704700BF90EC200BA3
:10122000704700BF80EC200B704700BFD0EC200B54
:10123000704700BFC0EC200B704700BFF0EC02010C
:10124000F0EC0211F0EC0221F0EC0231F0EC024182
:10125000F0EC0251F0EC0261F0EC0271F0EC028172
:10126000F0EC0291F0EC02A1F0EC02B1F0EC02C162
:10127000F0EC02D1F0EC02E1F0EC02F1704700BFBB
:10128000E0EC0201E0EC0211E0EC0221E0EC0231C2
:10129000E0EC0241E0EC0251E0EC0261E0EC0271B2
:1012A000E0EC0281E0EC0291E0EC02A1E0EC02B1A2
:1012B000E0EC02C1E0EC02D1E0EC02E1E0EC02F192
:1012C000704700BFB0FC0181B0FC0191B0FC01A1EE
:1012D000B0FC01B1704700BFA0FC0181A0FC0191EE
:1012E000A0FC01A1A0FC01B1704700BFEC4600B515
:1012F0002DE900502DE9FF1F4FF000032DE90C00F0
:1013000001A9FFF7BFFBDDF840E012B0704700BF56
:10131000EC4600B52DE900502DE9FF1F4FF000030A
:101320002DE90C0001A9FFF7E7FBDDF840E012B062
:10133000704700BFEC4600B52DE900502DE9FF1FB6
:101340004FF000032DE90C0001A9FFF7F7FBDDF8D2
:1013500040E012B0704700BFEC4600B52DE90050E8
:101360002DE9FF1F4FF000032DE90C0001ABFFF743
:10137000B9FBDDF840E012B0704700BFEC4600B5A5
:101380002DE900502DE9FF1F4FF000032DE90C005F
:1013900001AAFFF735FCDDF840E012B0704700BF4E
:1013A000037A1BB9437A43B9B02070475A1E0368C9
:1013B00002721A020260180E70474268013B10B4B4
:1013C000437213680321141D01721A024460026003
:1013D0005DF8044B180E704700B585B003AB0021D3
:1013E00000930C220B46FFF7BBFB039805B05DF89A
:1013F00004FB00BFF0E700BF2DE9F04306460D46B1
:1014000085B04FF000082846FFF7CAFFB028044611
:1014100000F0B58020F07F0111F0FF0120D000F036
:10142000F003802B7AD0902B36D0A02B49D0B02B54
:101430005CD0C02B00F0898000F0F803D02B0BD1DA
:1014400000F00702013242F4002230460121052358
:10145000FFF77EFD0028D6D0092005B0BDE8F08357
:101460000DF10C090B468700CDF8009030460D2297
:10147000FFF776FBFFB2039B043760064FF00001D5
:101480004CBFDF1BFF18CDF800900B4630460D22F5
:101490000397FFF78DFBB6E700F00D030D2BDBD0B4
:1014A00003AF002100F00F020B4600973046FFF714
:1014B00057FB002100970B4630460D22FFF778FBC3
:1014C000A1E7C3434FF47F6203F007031A4101070A
:1014D00002F47F624FF0000148BF42F480420B46A5
:1014E0003046FFF735FD0028B6D18CE7B1284CD047
:1014F000B2285DD0B32800F08A8000F0FC03B42B42
:10150000AAD000F007020132012142F400220B466A
:101510003046FFF71DFD00289ED174E72846FFF7EF
:101520003FFF24022043B0F5004F95D00401002175
:10153000A2B20B463046FFF70BFD00288CD114F405
:10154000004F18BF4FF001085DE7C62872D0C728CA
:101550007AD000F0F803C02B00F08980C82800F092
:10156000A580C9287FF478AF2846FFF719FF00F05F
:101570000F02013200F0F00042EA003265E7B8F1F4
:10158000000F00F08280002067E72846FFF708FF81
:10159000024600283FF460AF10F0F0017FF45CAF2A
:1015A00030460B46FFF7D4FC00287FF455AF2AE7FE
:1015B00000210DF10C090D220B46CDF800903046AC
:1015C000FFF7CEFA2846FFF7EBFE02064FF00204C3
:1015D0000CD5039B00F07F00A040034428460393F2
:1015E000FFF7DEFE030604F10704F2D4039B00F0CC
:1015F0007F00A04003F5017300211C18CDF8009076
:101600000B4630460D220394FFF7D2FAFBE628463C
:10161000FFF7C6FE00F00F02013200F0F0000121DA
:1016200042EA00320B463046FFF792FC00287FF476
:1016300013AFE8E62846FFF7B3FE00F00F020132D1
:1016400000F0F0000321EBE72846FFF7A9FE024671
:1016500000283FF401AF10F0F0037FF4FDAE3046F8
:101660000421FFF775FC00287FF4F6AECBE600F00E
:101670000F020132032142F420220B463046FFF7CD
:1016800067FC00287FF4E8AEBDE603AC41460E22BD
:10169000434600943046FFF763FA009430464146D3
:1016A0000F224346FFF784FA4046D6E62846FFF766
:1016B00077FE00F0F00200F00F031032013343EA2E
:1016C0000232C2E610B5C36C84B003205A688DF8AC
:1016D0000C00DC7912020833084601A901928DF84A
:1016E0000D400293FFF788FE04B010BD08B5FFF768
:1016F00081FE806C08BD00BF08B5FFF77BFEC36CA0
:10170000D87903EB8000083008BD00BF08B500F0B1
:1017100005F800BF08B500F001F800BF08B50620C5
:1017200000F0A6F8012000F0D1F800BF844641EA9D
:10173000000313F0030349D1403A23D30B6803603D
:101740004B6843608B688360CB68C3600B6903613F
:101750004B6943618B698361CB69C3610B6A036227
:101760004B6A43628B6A8362CB6AC3620B6B03630F
:101770004B6B43638B6B8363CB6BC36340304031F4
:10178000403ADBD230320BD30B6803604B684360C6
:101790008B688360CB68C36010301031103AF3D28D
:1017A0000C3205D351F8043B40F8043B043AF9D21B
:1017B000043208D0D2071CBF11F8013B00F8013BEE
:1017C00001D30B8803806046704700BF082A13D3FB
:1017D0008B07B1D010F00303AED0C3F10403D21ACB
:1017E000DB071CBF11F8013B00F8013BA4D331F823
:1017F000023B20F8023B9FE7043AD9D3013A11F8A3
:10180000013B00F8013BF9D20B7803704B78437031
:101810008B788370604670471F2938B522D8D0F87E
:10182000DC2205460C469AB152F8213083B1012BD7
:101830000CD0591C06D00025204642F82450984769
:10184000284638BD16230360012038BD002038BD6E
:10185000284600F029F8224601462846BDE83840CF
:1018600000F00EB8162303604FF0FF3038BD00BF04
:10187000024B01461868FFF7CFBF00BF38040020B5
:1018800038B5084C0023054608461146236000F091
:1018900015F8431C00D038BD2368002BFBD02B600B
:1018A00038BD00BF3C04002000F000B8024B5822B5
:1018B0001A604FF0FF3070473C040020024B582262
:1018C0001A604FF0FF3070473C040020FEE700BF75
:1018D000550A0D00440A0D004C0A0D00520A0D0075
:1018E000430A0D00450A0D00480A0D0043000000A0
:1018F00008B10181B0B000840000000008B101818E
:08190000B0B0008400000000FB
:1019080048E8FF7FB0A9028004EAFF7F01000000D9
:1019180040EFFF7FB0A90280DCEFFF7FB0B0A88066
:101928002CF0FF7F0100000038F0FF7FB0B0AA80E4
:1019380070F0FF7FAE71B28040F1FF7F01000000C0
:101948003CF1FF7FAB3F388094F1FF7F010000003E
:10195800A0F1FF7FB0B0AA80DCF1FF7F010000009A
:1019680098F2FF7FAB0EB28000F3FF7FB0AF0A8022
:10197800CCF5FF7F01000000D0F5FF7FAB3F04806E
:101988006CF8FF7F0100000048FAFF7F00840480A4
:101998005CFAFF7F0100000058FAFF7FB0AD0480B9
:1019A8001CFDFF7FB0A803803CFDFF7F3CFFFF7F4D
:1019B80040FDFF7F40FFFF7F4CFDFF7F01000000DF
:1019C80000127A0000127A0000127A00000000006B
:1019D80000000000FC02002064030020CC0300206B
:1019E80000000000000000000000000000000000EF
:1019F80000000000000000000000000000000000DF
:101A080000000000EC1800080000000000000000C2
:101A180000000000000000000000000000000000BE
:101A280000000000000000000000000000000000AE
:101A3800000000000000000000000000000000009E
:101A4800000000000000000000000000000000008E
:101A5800000000000000000000000000000000007E
:101A6800000000000000000000000000000000006E
:101A7800000000000000000001000000000000005D
:101A88000E33CDAB34126DE6ECDE05000B00000022
:101A9800000000000000000000000000000000003E
:101AA800000000000000000000000000000000002E
:101AB800000000000000000000000000000000001E
:101AC800000000000000000000000000000000000E
:0C1DF800000000000000000010000020AF
:040000050800066584
:00000001FF
